{
  "contractName": "luxMarketplace",
  "abi": [
    {
      "inputs": [],
      "payable": false,
      "stateMutability": "nonpayable",
      "type": "constructor"
    },
    {
      "constant": true,
      "inputs": [
        {
          "internalType": "string",
          "name": "",
          "type": "string"
        },
        {
          "internalType": "uint256",
          "name": "",
          "type": "uint256"
        }
      ],
      "name": "history",
      "outputs": [
        {
          "internalType": "uint256",
          "name": "id",
          "type": "uint256"
        },
        {
          "internalType": "string",
          "name": "token",
          "type": "string"
        },
        {
          "internalType": "address",
          "name": "owner",
          "type": "address"
        },
        {
          "internalType": "string",
          "name": "state",
          "type": "string"
        },
        {
          "internalType": "string",
          "name": "physicalAddress",
          "type": "string"
        },
        {
          "internalType": "uint256",
          "name": "typeToken",
          "type": "uint256"
        },
        {
          "internalType": "uint256",
          "name": "price",
          "type": "uint256"
        },
        {
          "internalType": "uint256",
          "name": "changes",
          "type": "uint256"
        },
        {
          "internalType": "uint256",
          "name": "editTime",
          "type": "uint256"
        }
      ],
      "payable": false,
      "stateMutability": "view",
      "type": "function"
    },
    {
      "constant": true,
      "inputs": [],
      "name": "liquidTokens",
      "outputs": [
        {
          "internalType": "uint256",
          "name": "",
          "type": "uint256"
        }
      ],
      "payable": false,
      "stateMutability": "view",
      "type": "function"
    },
    {
      "constant": true,
      "inputs": [
        {
          "internalType": "uint256",
          "name": "",
          "type": "uint256"
        }
      ],
      "name": "marketplace",
      "outputs": [
        {
          "internalType": "uint256",
          "name": "id",
          "type": "uint256"
        },
        {
          "internalType": "string",
          "name": "token",
          "type": "string"
        },
        {
          "internalType": "address",
          "name": "owner",
          "type": "address"
        },
        {
          "internalType": "string",
          "name": "state",
          "type": "string"
        },
        {
          "internalType": "string",
          "name": "physicalAddress",
          "type": "string"
        },
        {
          "internalType": "uint256",
          "name": "typeToken",
          "type": "uint256"
        },
        {
          "internalType": "uint256",
          "name": "price",
          "type": "uint256"
        },
        {
          "internalType": "uint256",
          "name": "changes",
          "type": "uint256"
        },
        {
          "internalType": "uint256",
          "name": "editTime",
          "type": "uint256"
        }
      ],
      "payable": false,
      "stateMutability": "view",
      "type": "function"
    },
    {
      "constant": false,
      "inputs": [],
      "name": "genesis",
      "outputs": [],
      "payable": false,
      "stateMutability": "nonpayable",
      "type": "function"
    },
    {
      "constant": false,
      "inputs": [
        {
          "internalType": "string",
          "name": "name",
          "type": "string"
        },
        {
          "internalType": "string",
          "name": "state",
          "type": "string"
        },
        {
          "internalType": "string",
          "name": "pAddress",
          "type": "string"
        },
        {
          "internalType": "uint256",
          "name": "typeToken",
          "type": "uint256"
        },
        {
          "internalType": "uint256",
          "name": "price",
          "type": "uint256"
        }
      ],
      "name": "addToken",
      "outputs": [],
      "payable": false,
      "stateMutability": "nonpayable",
      "type": "function"
    },
    {
      "constant": false,
      "inputs": [
        {
          "internalType": "uint256",
          "name": "id",
          "type": "uint256"
        },
        {
          "internalType": "string",
          "name": "state",
          "type": "string"
        },
        {
          "internalType": "string",
          "name": "pAddress",
          "type": "string"
        },
        {
          "internalType": "uint256",
          "name": "typeToken",
          "type": "uint256"
        },
        {
          "internalType": "uint256",
          "name": "price",
          "type": "uint256"
        }
      ],
      "name": "updateMarketEntry",
      "outputs": [],
      "payable": false,
      "stateMutability": "nonpayable",
      "type": "function"
    },
    {
      "constant": true,
      "inputs": [
        {
          "internalType": "uint256",
          "name": "id",
          "type": "uint256"
        }
      ],
      "name": "returnMarketCount",
      "outputs": [
        {
          "internalType": "uint256",
          "name": "",
          "type": "uint256"
        }
      ],
      "payable": false,
      "stateMutability": "view",
      "type": "function"
    },
    {
      "constant": true,
      "inputs": [
        {
          "internalType": "uint256",
          "name": "index",
          "type": "uint256"
        },
        {
          "internalType": "string",
          "name": "name",
          "type": "string"
        }
      ],
      "name": "returnToken",
      "outputs": [
        {
          "components": [
            {
              "internalType": "uint256",
              "name": "id",
              "type": "uint256"
            },
            {
              "internalType": "string",
              "name": "token",
              "type": "string"
            },
            {
              "internalType": "address",
              "name": "owner",
              "type": "address"
            },
            {
              "internalType": "string",
              "name": "state",
              "type": "string"
            },
            {
              "internalType": "string",
              "name": "physicalAddress",
              "type": "string"
            },
            {
              "internalType": "uint256",
              "name": "typeToken",
              "type": "uint256"
            },
            {
              "internalType": "uint256",
              "name": "price",
              "type": "uint256"
            },
            {
              "internalType": "uint256",
              "name": "changes",
              "type": "uint256"
            },
            {
              "internalType": "uint256",
              "name": "editTime",
              "type": "uint256"
            }
          ],
          "internalType": "struct luxMarketplace.MarketEntry",
          "name": "",
          "type": "tuple"
        }
      ],
      "payable": false,
      "stateMutability": "view",
      "type": "function"
    }
  ],
  "bytecode": "0x6080604052600080553480156200001557600080fd5b50620000266200002c60201b60201c565b620002db565b6000429050604051806101200160405280600081526020016040518060400160405280600b81526020017f576174657220546f6b656e00000000000000000000000000000000000000000081525081526020013373ffffffffffffffffffffffffffffffffffffffff1681526020016040518060400160405280600281526020017f4f5200000000000000000000000000000000000000000000000000000000000081525081526020016040518060400160405280600f81526020017f313233204d61696e2053747265657400000000000000000000000000000000008152508152602001600181526020016063815260200160008152602001828152506001600080548152602001908152602001600020600082015181600001556020820151816001019080519060200190620001669291906200022c565b5060408201518160020160006101000a81548173ffffffffffffffffffffffffffffffffffffffff021916908373ffffffffffffffffffffffffffffffffffffffff1602179055506060820151816003019080519060200190620001cc9291906200022c565b506080820151816004019080519060200190620001eb9291906200022c565b5060a0820151816005015560c0820151816006015560e082015181600701556101008201518160080155905050600080815480929190600101919050555050565b828054600181600116156101000203166002900490600052602060002090601f016020900481019282601f106200026f57805160ff1916838001178555620002a0565b82800160010185558215620002a0579182015b828111156200029f57825182559160200191906001019062000282565b5b509050620002af9190620002b3565b5090565b620002d891905b80821115620002d4576000816000905550600101620002ba565b5090565b90565b611a8980620002eb6000396000f3fe608060405234801561001057600080fd5b50600436106100885760003560e01c8063a55d33e11161005b578063a55d33e11461012f578063a7f0b3de1461015f578063d900175f14610169578063ee876bee146101a157610088565b80634ba0d7b31461008d5780635ec2d6dc146100ab5780637ba5ab71146100c757806397808058146100f7575b600080fd5b6100956101bd565b6040516100a2919061181b565b60405180910390f35b6100c560048036036100c091908101906113f9565b6101c3565b005b6100e160048036036100dc9190810190611535565b610322565b6040516100ee91906117f9565b60405180910390f35b610111600480360361010c91908101906114b8565b6105e3565b60405161012699989796959493929190611836565b60405180910390f35b6101496004803603610144919081019061150c565b610849565b604051610156919061181b565b60405180910390f35b61016761086e565b005b610183600480360361017e919081019061150c565b610a68565b60405161019899989796959493929190611836565b60405180910390f35b6101bb60048036036101b69190810190611589565b610c9e565b005b60005481565b600042905060405180610120016040528060005481526020018781526020013373ffffffffffffffffffffffffffffffffffffffff1681526020018681526020018581526020018481526020018381526020016000815260200182815250600160008054815260200190815260200160002060008201518160000155602082015181600101908051906020019061025b929190611235565b5060408201518160020160006101000a81548173ffffffffffffffffffffffffffffffffffffffff021916908373ffffffffffffffffffffffffffffffffffffffff16021790555060608201518160030190805190602001906102bf929190611235565b5060808201518160040190805190602001906102dc929190611235565b5060a0820151816005015560c0820151816006015560e0820151816007015561010082015181600801559050506000808154809291906001019190505550505050505050565b61032a6112b5565b60028260405161033a91906117e2565b9081526020016040518091039020838154811061035357fe5b90600052602060002090600902016040518061012001604052908160008201548152602001600182018054600181600116156101000203166002900480601f0160208091040260200160405190810160405280929190818152602001828054600181600116156101000203166002900480156104105780601f106103e557610100808354040283529160200191610410565b820191906000526020600020905b8154815290600101906020018083116103f357829003601f168201915b505050505081526020016002820160009054906101000a900473ffffffffffffffffffffffffffffffffffffffff1673ffffffffffffffffffffffffffffffffffffffff1673ffffffffffffffffffffffffffffffffffffffff168152602001600382018054600181600116156101000203166002900480601f0160208091040260200160405190810160405280929190818152602001828054600181600116156101000203166002900480156105085780601f106104dd57610100808354040283529160200191610508565b820191906000526020600020905b8154815290600101906020018083116104eb57829003601f168201915b50505050508152602001600482018054600181600116156101000203166002900480601f0160208091040260200160405190810160405280929190818152602001828054600181600116156101000203166002900480156105aa5780601f1061057f576101008083540402835291602001916105aa565b820191906000526020600020905b81548152906001019060200180831161058d57829003601f168201915b50505050508152602001600582015481526020016006820154815260200160078201548152602001600882015481525050905092915050565b600282805160208101820180518482526020830160208501208183528095505050505050818154811061061257fe5b906000526020600020906009020160009150915050806000015490806001018054600181600116156101000203166002900480601f0160208091040260200160405190810160405280929190818152602001828054600181600116156101000203166002900480156106c55780601f1061069a576101008083540402835291602001916106c5565b820191906000526020600020905b8154815290600101906020018083116106a857829003601f168201915b5050505050908060020160009054906101000a900473ffffffffffffffffffffffffffffffffffffffff1690806003018054600181600116156101000203166002900480601f0160208091040260200160405190810160405280929190818152602001828054600181600116156101000203166002900480156107895780601f1061075e57610100808354040283529160200191610789565b820191906000526020600020905b81548152906001019060200180831161076c57829003601f168201915b505050505090806004018054600181600116156101000203166002900480601f0160208091040260200160405190810160405280929190818152602001828054600181600116156101000203166002900480156108275780601f106107fc57610100808354040283529160200191610827565b820191906000526020600020905b81548152906001019060200180831161080a57829003601f168201915b5050505050908060050154908060060154908060070154908060080154905089565b6000806001600084815260200190815260200160002060070154905080915050919050565b6000429050604051806101200160405280600081526020016040518060400160405280600b81526020017f576174657220546f6b656e00000000000000000000000000000000000000000081525081526020013373ffffffffffffffffffffffffffffffffffffffff1681526020016040518060400160405280600281526020017f4f5200000000000000000000000000000000000000000000000000000000000081525081526020016040518060400160405280600f81526020017f313233204d61696e20537472656574000000000000000000000000000000000081525081526020016001815260200160638152602001600081526020018281525060016000805481526020019081526020016000206000820151816000015560208201518160010190805190602001906109a6929190611235565b5060408201518160020160006101000a81548173ffffffffffffffffffffffffffffffffffffffff021916908373ffffffffffffffffffffffffffffffffffffffff1602179055506060820151816003019080519060200190610a0a929190611235565b506080820151816004019080519060200190610a27929190611235565b5060a0820151816005015560c0820151816006015560e082015181600701556101008201518160080155905050600080815480929190600101919050555050565b6001602052806000526040600020600091509050806000015490806001018054600181600116156101000203166002900480601f016020809104026020016040519081016040528092919081815260200182805460018160011615610100020316600290048015610b1a5780601f10610aef57610100808354040283529160200191610b1a565b820191906000526020600020905b815481529060010190602001808311610afd57829003601f168201915b5050505050908060020160009054906101000a900473ffffffffffffffffffffffffffffffffffffffff1690806003018054600181600116156101000203166002900480601f016020809104026020016040519081016040528092919081815260200182805460018160011615610100020316600290048015610bde5780601f10610bb357610100808354040283529160200191610bde565b820191906000526020600020905b815481529060010190602001808311610bc157829003601f168201915b505050505090806004018054600181600116156101000203166002900480601f016020809104026020016040519081016040528092919081815260200182805460018160011615610100020316600290048015610c7c5780601f10610c5157610100808354040283529160200191610c7c565b820191906000526020600020905b815481529060010190602001808311610c5f57829003601f168201915b5050505050908060050154908060060154908060070154908060080154905089565b6060600160008781526020019081526020016000206001018054600181600116156101000203166002900480601f016020809104026020016040519081016040528092919081815260200182805460018160011615610100020316600290048015610d4a5780601f10610d1f57610100808354040283529160200191610d4a565b820191906000526020600020905b815481529060010190602001808311610d2d57829003601f168201915b505050505090506060600160008881526020019081526020016000206003018054600181600116156101000203166002900480601f016020809104026020016040519081016040528092919081815260200182805460018160011615610100020316600290048015610dfd5780601f10610dd257610100808354040283529160200191610dfd565b820191906000526020600020905b815481529060010190602001808311610de057829003601f168201915b505050505090506060600160008981526020019081526020016000206004018054600181600116156101000203166002900480601f016020809104026020016040519081016040528092919081815260200182805460018160011615610100020316600290048015610eb05780601f10610e8557610100808354040283529160200191610eb0565b820191906000526020600020905b815481529060010190602001808311610e9357829003601f168201915b505050505090506000600160008a81526020019081526020016000206005015490506000600160008b8152602001908152602001600020600601549050610efc8a863387878787610f17565b610f0b8a86338c8c8c8c6110cb565b50505050505050505050565b610f1f6112b5565b6040518061012001604052808981526020018881526020018773ffffffffffffffffffffffffffffffffffffffff168152602001868152602001858152602001848152602001838152602001600160008b8152602001908152602001600020600701548152602001600160008b8152602001908152602001600020600801548152509050600287604051610fb391906117e2565b90815260200160405180910390208190806001815401808255809150509060018203906000526020600020906009020160009091929091909150600082015181600001556020820151816001019080519060200190611013929190611235565b5060408201518160020160006101000a81548173ffffffffffffffffffffffffffffffffffffffff021916908373ffffffffffffffffffffffffffffffffffffffff1602179055506060820151816003019080519060200190611077929190611235565b506080820151816004019080519060200190611094929190611235565b5060a0820151816005015560c0820151816006015560e0820151816007015561010082015181600801555050505050505050505050565b6000429050600060018060008b8152602001908152602001600020600701540190506040518061012001604052808a81526020018981526020018873ffffffffffffffffffffffffffffffffffffffff16815260200187815260200186815260200185815260200184815260200182815260200183815250600160008b815260200190815260200160002060008201518160000155602082015181600101908051906020019061117c929190611235565b5060408201518160020160006101000a81548173ffffffffffffffffffffffffffffffffffffffff021916908373ffffffffffffffffffffffffffffffffffffffff16021790555060608201518160030190805190602001906111e0929190611235565b5060808201518160040190805190602001906111fd929190611235565b5060a0820151816005015560c0820151816006015560e082015181600701556101008201518160080155905050505050505050505050565b828054600181600116156101000203166002900490600052602060002090601f016020900481019282601f1061127657805160ff19168380011785556112a4565b828001600101855582156112a4579182015b828111156112a3578251825591602001919060010190611288565b5b5090506112b19190611317565b5090565b6040518061012001604052806000815260200160608152602001600073ffffffffffffffffffffffffffffffffffffffff1681526020016060815260200160608152602001600081526020016000815260200160008152602001600081525090565b61133991905b8082111561133557600081600090555060010161131d565b5090565b90565b600082601f83011261134d57600080fd5b813561136061135b82611905565b6118d8565b9150808252602083016020830185838301111561137c57600080fd5b6113878382846119dc565b50505092915050565b600082601f8301126113a157600080fd5b81356113b46113af82611931565b6118d8565b915080825260208301602083018583830111156113d057600080fd5b6113db8382846119dc565b50505092915050565b6000813590506113f381611a2f565b92915050565b600080600080600060a0868803121561141157600080fd5b600086013567ffffffffffffffff81111561142b57600080fd5b61143788828901611390565b955050602086013567ffffffffffffffff81111561145457600080fd5b61146088828901611390565b945050604086013567ffffffffffffffff81111561147d57600080fd5b61148988828901611390565b935050606061149a888289016113e4565b92505060806114ab888289016113e4565b9150509295509295909350565b600080604083850312156114cb57600080fd5b600083013567ffffffffffffffff8111156114e557600080fd5b6114f18582860161133c565b9250506020611502858286016113e4565b9150509250929050565b60006020828403121561151e57600080fd5b600061152c848285016113e4565b91505092915050565b6000806040838503121561154857600080fd5b6000611556858286016113e4565b925050602083013567ffffffffffffffff81111561157357600080fd5b61157f85828601611390565b9150509250929050565b600080600080600060a086880312156115a157600080fd5b60006115af888289016113e4565b955050602086013567ffffffffffffffff8111156115cc57600080fd5b6115d888828901611390565b945050604086013567ffffffffffffffff8111156115f557600080fd5b61160188828901611390565b9350506060611612888289016113e4565b9250506080611623888289016113e4565b9150509295509295909350565b611639816119a0565b82525050565b611648816119a0565b82525050565b600061165982611968565b6116638185611995565b93506116738185602086016119eb565b80840191505092915050565b600061168a8261195d565b6116948185611973565b93506116a48185602086016119eb565b6116ad81611a1e565b840191505092915050565b60006116c38261195d565b6116cd8185611984565b93506116dd8185602086016119eb565b6116e681611a1e565b840191505092915050565b60006101208301600083015161170a60008601826117c4565b5060208301518482036020860152611722828261167f565b91505060408301516117376040860182611630565b506060830151848203606086015261174f828261167f565b91505060808301518482036080860152611769828261167f565b91505060a083015161177e60a08601826117c4565b5060c083015161179160c08601826117c4565b5060e08301516117a460e08601826117c4565b506101008301516117b96101008601826117c4565b508091505092915050565b6117cd816119d2565b82525050565b6117dc816119d2565b82525050565b60006117ee828461164e565b915081905092915050565b6000602082019050818103600083015261181381846116f1565b905092915050565b600060208201905061183060008301846117d3565b92915050565b60006101208201905061184c600083018c6117d3565b818103602083015261185e818b6116b8565b905061186d604083018a61163f565b818103606083015261187f81896116b8565b9050818103608083015261189381886116b8565b90506118a260a08301876117d3565b6118af60c08301866117d3565b6118bc60e08301856117d3565b6118ca6101008301846117d3565b9a9950505050505050505050565b6000604051905081810181811067ffffffffffffffff821117156118fb57600080fd5b8060405250919050565b600067ffffffffffffffff82111561191c57600080fd5b601f19601f8301169050602081019050919050565b600067ffffffffffffffff82111561194857600080fd5b601f19601f8301169050602081019050919050565b600081519050919050565b600081519050919050565b600082825260208201905092915050565b600082825260208201905092915050565b600081905092915050565b60006119ab826119b2565b9050919050565b600073ffffffffffffffffffffffffffffffffffffffff82169050919050565b6000819050919050565b82818337600083830152505050565b60005b83811015611a095780820151818401526020810190506119ee565b83811115611a18576000848401525b50505050565b6000601f19601f8301169050919050565b611a38816119d2565b8114611a4357600080fd5b5056fea365627a7a72315820b7fb25ee5df2bd1d62962e6722237befa572636bbb5bdc9ed727fd6512a5d5346c6578706572696d656e74616cf564736f6c63430005100040",
  "source": "pragma solidity ^0.5.16;\npragma experimental ABIEncoderV2;\n\ncontract luxMarketplace {\n\n  uint public liquidTokens = 0;\n\n  struct MarketEntry {\n    uint id;\n    string token;\n    address owner;\n    string state;\n    string physicalAddress;\n    uint typeToken;\n    uint price;\n    uint changes;\n    uint editTime;\n  }\n\n  //uint == ID\n  mapping (uint => MarketEntry) public marketplace;\n  mapping (string => MarketEntry[]) public history;\n\n  constructor () public {\n    genesis();\n  }\n\n\n  function genesis() public {\n\n    uint currentTime = now;\n\n    marketplace[liquidTokens] = MarketEntry(0, \"Water Token\", msg.sender, \"OR\", \"123 Main Street\", 1, 99, 0, currentTime);\n    liquidTokens++;\n  }\n\n\n  function addToken(string memory name, string memory state, string memory pAddress, uint typeToken, uint price) public {\n\n    uint currentTime = now;\n\n    marketplace[liquidTokens] = MarketEntry(liquidTokens, name, msg.sender, state, pAddress, typeToken, price, 0, currentTime);\n    liquidTokens++;\n\n  }\n\n  function updateMarketEntry(uint id, string memory state, string memory pAddress, uint typeToken, uint price) public {\n\n    //make sure msg.sender is owner\n\n    string memory name = marketplace[id].token;\n\n    string memory oldState = marketplace[id].state;\n    string memory oldAddress = marketplace[id].physicalAddress;\n    uint oldtypeToken = marketplace[id].typeToken;\n    uint oldPrice = marketplace[id].price;\n\n    storeOldTokens(id, name, msg.sender, oldState, oldAddress, oldtypeToken, oldPrice);\n\n    storeNewTokens(id, name, msg.sender, state, pAddress, typeToken, price);\n  }\n\n  function storeNewTokens(uint id, string memory name, address owner, string memory state, string memory pAddress, uint typeToken, uint price) private {\n\n    uint currentTime = now;\n    uint numRevisions = (marketplace[id].changes + 1);\n\n    marketplace[id] = MarketEntry(id, name, owner, state, pAddress, typeToken, price, numRevisions, currentTime);\n  }\n\n  function storeOldTokens(uint id, string memory token, address owner, string memory oldState, string memory oldAddress, uint oldTypeToken, uint oldPrice) private {\n\n    MarketEntry memory tokenHistory = MarketEntry(id, token, owner, oldState, oldAddress, oldTypeToken, oldPrice, marketplace[id].changes, marketplace[id].editTime);\n\n    history[token].push(tokenHistory);\n\n  }\n\n  function returnMarketCount (uint id) public view returns (uint) {\n\n    uint editCount = marketplace[id].changes;\n\n    return editCount;\n  }\n\n\n  function returnToken (uint index, string memory name) public view returns (MarketEntry memory) {\n\n    return history[name][index];\n  }\n\n}\n",
  "sourcePath": "/Users/reuben/Desktop/work/lux/demo/product/eth/luxwater/contracts/marketplace.sol",
  "compiler": {
    "name": "solc",
    "version": "0.5.16+commit.9c3226ce.Emscripten.clang"
  },
  "schemaVersion": "3.4.3",
  "updatedAt": "2021-08-25T00:04:26.786Z",
  "networkType": "ethereum",
  "devdoc": {
    "methods": {}
  },
  "userdoc": {
    "methods": {}
  }
}